{
    "_format": "hh-sol-artifact-1",
    "contractName": "Counter",
    "sourceName": "contracts/Counter.sol",
    "abi": [
        {
            "anonymous": false,
            "inputs": [
                {
                    "indexed": false,
                    "internalType": "uint256",
                    "name": "_decrease",
                    "type": "uint256"
                },
                {
                    "indexed": false,
                    "internalType": "uint256",
                    "name": "_value",
                    "type": "uint256"
                }
            ],
            "name": "Decreased",
            "type": "event"
        },
        {
            "anonymous": false,
            "inputs": [
                {
                    "indexed": false,
                    "internalType": "uint256",
                    "name": "_increase",
                    "type": "uint256"
                },
                {
                    "indexed": false,
                    "internalType": "uint256",
                    "name": "_value",
                    "type": "uint256"
                }
            ],
            "name": "Increased",
            "type": "event"
        },
        {
            "inputs": [],
            "name": "decrease",
            "outputs": [],
            "stateMutability": "nonpayable",
            "type": "function"
        },
        {
            "inputs": [],
            "name": "increase",
            "outputs": [],
            "stateMutability": "nonpayable",
            "type": "function"
        },
        {
            "inputs": [],
            "name": "reset",
            "outputs": [],
            "stateMutability": "nonpayable",
            "type": "function"
        },
        {
            "inputs": [],
            "name": "viewValue",
            "outputs": [
                {
                    "internalType": "uint256",
                    "name": "",
                    "type": "uint256"
                }
            ],
            "stateMutability": "view",
            "type": "function"
        }
    ],
    "bytecode": "0x60806040526000805534801561001457600080fd5b506102c1806100246000396000f3fe608060405234801561001057600080fd5b506004361061004c5760003560e01c80631a6a959414610051578063d732d9551461006f578063d826f88f14610079578063e8927fbc14610083575b600080fd5b61005961008d565b6040516100669190610162565b60405180910390f35b610077610096565b005b6100816100eb565b005b61008b6100f4565b005b60008054905090565b6000808154809291906100a8906101ac565b91905055507f5c42772fd61cf5980a5c70e3b4504f0a5783d73d2272e2e9ff636b786827950060016000546040516100e192919061021a565b60405180910390a1565b60008081905550565b60008081548092919061010690610243565b91905055507f30845c3e9107632fad0d79850bbf4bad84d533879c7068c957ca3851510d5281600160005460405161013f92919061021a565b60405180910390a1565b6000819050919050565b61015c81610149565b82525050565b60006020820190506101776000830184610153565b92915050565b7f4e487b7100000000000000000000000000000000000000000000000000000000600052601160045260246000fd5b60006101b782610149565b9150600082036101ca576101c961017d565b5b600182039050919050565b6000819050919050565b6000819050919050565b60006102046101ff6101fa846101d5565b6101df565b610149565b9050919050565b610214816101e9565b82525050565b600060408201905061022f600083018561020b565b61023c6020830184610153565b9392505050565b600061024e82610149565b91507fffffffffffffffffffffffffffffffffffffffffffffffffffffffffffffffff82036102805761027f61017d565b5b60018201905091905056fea26469706673582212208175bbde81a220cb0a2e1a39a951797e0ec887e0f5c02f076fe5eef6eb7a8c0e64736f6c63430008110033",
    "linkReferences": {},
    "deployedLinkReferences": {}
}