{
    "_format": "hh-sol-artifact-1",
    "contractName": "Todo",
    "sourceName": "contracts/Todo.sol",
    "abi": [
        {
            "anonymous": false,
            "inputs": [
                {
                    "indexed": false,
                    "internalType": "uint256",
                    "name": "_id",
                    "type": "uint256"
                },
                {
                    "indexed": false,
                    "internalType": "string",
                    "name": "_content",
                    "type": "string"
                }
            ],
            "name": "TaskAdded",
            "type": "event"
        },
        {
            "inputs": [
                {
                    "internalType": "string",
                    "name": "_content",
                    "type": "string"
                }
            ],
            "name": "addTask",
            "outputs": [],
            "stateMutability": "nonpayable",
            "type": "function"
        },
        {
            "inputs": [],
            "name": "list",
            "outputs": [
                {
                    "components": [
                        {
                            "internalType": "string",
                            "name": "content",
                            "type": "string"
                        },
                        {
                            "internalType": "bool",
                            "name": "isCompleted",
                            "type": "bool"
                        }
                    ],
                    "internalType": "struct Todo.Task[]",
                    "name": "",
                    "type": "tuple[]"
                }
            ],
            "stateMutability": "view",
            "type": "function"
        },
        {
            "inputs": [
                {
                    "internalType": "uint256",
                    "name": "index",
                    "type": "uint256"
                }
            ],
            "name": "removeTask",
            "outputs": [],
            "stateMutability": "nonpayable",
            "type": "function"
        },
        {
            "inputs": [
                {
                    "internalType": "uint256",
                    "name": "",
                    "type": "uint256"
                }
            ],
            "name": "tasks",
            "outputs": [
                {
                    "internalType": "string",
                    "name": "content",
                    "type": "string"
                },
                {
                    "internalType": "bool",
                    "name": "isCompleted",
                    "type": "bool"
                }
            ],
            "stateMutability": "view",
            "type": "function"
        },
        {
            "inputs": [
                {
                    "internalType": "uint256",
                    "name": "_id",
                    "type": "uint256"
                },
                {
                    "internalType": "string",
                    "name": "_content",
                    "type": "string"
                }
            ],
            "name": "updateTaskContent",
            "outputs": [],
            "stateMutability": "nonpayable",
            "type": "function"
        },
        {
            "inputs": [
                {
                    "internalType": "uint256",
                    "name": "_id",
                    "type": "uint256"
                }
            ],
            "name": "updateTaskStatus",
            "outputs": [],
            "stateMutability": "nonpayable",
            "type": "function"
        }
    ],
    "bytecode": "0x608060405234801561001057600080fd5b50610fb7806100206000396000f3fe608060405234801561001057600080fd5b50600436106100625760003560e01c80630f560cd714610067578063655b028e1461008557806367238562146100a15780638d977672146100bd578063c02bc162146100ee578063c30841171461010a575b600080fd5b61006f610126565b60405161007c919061076c565b60405180910390f35b61009f600480360381019061009a919061090d565b610232565b005b6100bb60048036038101906100b69190610969565b610269565b005b6100d760048036038101906100d291906109b2565b6102f3565b6040516100e5929190610a38565b60405180910390f35b610108600480360381019061010391906109b2565b6103bc565b005b610124600480360381019061011f91906109b2565b61042f565b005b60606000805480602002602001604051908101604052809291908181526020016000905b82821015610229578382906000526020600020906002020160405180604001604052908160008201805461017d90610a97565b80601f01602080910402602001604051908101604052809291908181526020018280546101a990610a97565b80156101f65780601f106101cb576101008083540402835291602001916101f6565b820191906000526020600020905b8154815290600101906020018083116101d957829003601f168201915b505050505081526020016001820160009054906101000a900460ff1615151515815250508152602001906001019061014a565b50505050905090565b806000838154811061024757610246610ac8565b5b906000526020600020906002020160000190816102649190610ca3565b505050565b610271610549565b8181600001819052506000816020019015159081151581525050600081908060018154018082558091505060019003906000526020600020906002020160009091909190915060008201518160000190816102cc9190610ca3565b5060208201518160010160006101000a81548160ff02191690831515021790555050505050565b6000818154811061030357600080fd5b906000526020600020906002020160009150905080600001805461032690610a97565b80601f016020809104026020016040519081016040528092919081815260200182805461035290610a97565b801561039f5780601f106103745761010080835404028352916020019161039f565b820191906000526020600020905b81548152906001019060200180831161038257829003601f168201915b5050505050908060010160009054906101000a900460ff16905082565b600081815481106103d0576103cf610ac8565b5b906000526020600020906002020160010160009054906101000a900460ff16156000828154811061040457610403610ac8565b5b906000526020600020906002020160010160006101000a81548160ff02191690831515021790555050565b60008190505b60016000805490506104479190610da4565b8110156104f657600060018261045d9190610dd8565b8154811061046e5761046d610ac8565b5b9060005260206000209060020201600082815481106104905761048f610ac8565b5b9060005260206000209060020201600082018160000190816104b29190610e22565b506001820160009054906101000a900460ff168160010160006101000a81548160ff02191690831515021790555090505080806104ee90610f0a565b915050610435565b50600080548061050957610508610f52565b5b60019003818190600052602060002090600202016000808201600061052e9190610565565b6001820160006101000a81549060ff02191690555050905550565b6040518060400160405280606081526020016000151581525090565b50805461057190610a97565b6000825580601f1061058357506105a2565b601f0160209004906000526020600020908101906105a191906105a5565b5b50565b5b808211156105be5760008160009055506001016105a6565b5090565b600081519050919050565b600082825260208201905092915050565b6000819050602082019050919050565b600081519050919050565b600082825260208201905092915050565b60005b8381101561062857808201518184015260208101905061060d565b60008484015250505050565b6000601f19601f8301169050919050565b6000610650826105ee565b61065a81856105f9565b935061066a81856020860161060a565b61067381610634565b840191505092915050565b60008115159050919050565b6106938161067e565b82525050565b600060408301600083015184820360008601526106b68282610645565b91505060208301516106cb602086018261068a565b508091505092915050565b60006106e28383610699565b905092915050565b6000602082019050919050565b6000610702826105c2565b61070c81856105cd565b93508360208202850161071e856105de565b8060005b8581101561075a578484038952815161073b85826106d6565b9450610746836106ea565b925060208a01995050600181019050610722565b50829750879550505050505092915050565b6000602082019050818103600083015261078681846106f7565b905092915050565b6000604051905090565b600080fd5b600080fd5b6000819050919050565b6107b5816107a2565b81146107c057600080fd5b50565b6000813590506107d2816107ac565b92915050565b600080fd5b600080fd5b7f4e487b7100000000000000000000000000000000000000000000000000000000600052604160045260246000fd5b61081a82610634565b810181811067ffffffffffffffff82111715610839576108386107e2565b5b80604052505050565b600061084c61078e565b90506108588282610811565b919050565b600067ffffffffffffffff821115610878576108776107e2565b5b61088182610634565b9050602081019050919050565b82818337600083830152505050565b60006108b06108ab8461085d565b610842565b9050828152602081018484840111156108cc576108cb6107dd565b5b6108d784828561088e565b509392505050565b600082601f8301126108f4576108f36107d8565b5b813561090484826020860161089d565b91505092915050565b6000806040838503121561092457610923610798565b5b6000610932858286016107c3565b925050602083013567ffffffffffffffff8111156109535761095261079d565b5b61095f858286016108df565b9150509250929050565b60006020828403121561097f5761097e610798565b5b600082013567ffffffffffffffff81111561099d5761099c61079d565b5b6109a9848285016108df565b91505092915050565b6000602082840312156109c8576109c7610798565b5b60006109d6848285016107c3565b91505092915050565b600082825260208201905092915050565b60006109fb826105ee565b610a0581856109df565b9350610a1581856020860161060a565b610a1e81610634565b840191505092915050565b610a328161067e565b82525050565b60006040820190508181036000830152610a5281856109f0565b9050610a616020830184610a29565b9392505050565b7f4e487b7100000000000000000000000000000000000000000000000000000000600052602260045260246000fd5b60006002820490506001821680610aaf57607f821691505b602082108103610ac257610ac1610a68565b5b50919050565b7f4e487b7100000000000000000000000000000000000000000000000000000000600052603260045260246000fd5b60008190508160005260206000209050919050565b60006020601f8301049050919050565b600082821b905092915050565b600060088302610b597fffffffffffffffffffffffffffffffffffffffffffffffffffffffffffffffff82610b1c565b610b638683610b1c565b95508019841693508086168417925050509392505050565b6000819050919050565b6000610ba0610b9b610b96846107a2565b610b7b565b6107a2565b9050919050565b6000819050919050565b610bba83610b85565b610bce610bc682610ba7565b848454610b29565b825550505050565b600090565b610be3610bd6565b610bee818484610bb1565b505050565b5b81811015610c1257610c07600082610bdb565b600181019050610bf4565b5050565b601f821115610c5757610c2881610af7565b610c3184610b0c565b81016020851015610c40578190505b610c54610c4c85610b0c565b830182610bf3565b50505b505050565b600082821c905092915050565b6000610c7a60001984600802610c5c565b1980831691505092915050565b6000610c938383610c69565b9150826002028217905092915050565b610cac826105ee565b67ffffffffffffffff811115610cc557610cc46107e2565b5b610ccf8254610a97565b610cda828285610c16565b600060209050601f831160018114610d0d5760008415610cfb578287015190505b610d058582610c87565b865550610d6d565b601f198416610d1b86610af7565b60005b82811015610d4357848901518255600182019150602085019450602081019050610d1e565b86831015610d605784890151610d5c601f891682610c69565b8355505b6001600288020188555050505b505050505050565b7f4e487b7100000000000000000000000000000000000000000000000000000000600052601160045260246000fd5b6000610daf826107a2565b9150610dba836107a2565b9250828203905081811115610dd257610dd1610d75565b5b92915050565b6000610de3826107a2565b9150610dee836107a2565b9250828201905080821115610e0657610e05610d75565b5b92915050565b600081549050610e1b81610a97565b9050919050565b818103610e30575050610f08565b610e3982610e0c565b67ffffffffffffffff811115610e5257610e516107e2565b5b610e5c8254610a97565b610e67828285610c16565b6000601f831160018114610e965760008415610e84578287015490505b610e8e8582610c87565b865550610f01565b601f198416610ea487610af7565b9650610eaf86610af7565b60005b82811015610ed757848901548255600182019150600185019450602081019050610eb2565b86831015610ef45784890154610ef0601f891682610c69565b8355505b6001600288020188555050505b5050505050505b565b6000610f15826107a2565b91507fffffffffffffffffffffffffffffffffffffffffffffffffffffffffffffffff8203610f4757610f46610d75565b5b600182019050919050565b7f4e487b7100000000000000000000000000000000000000000000000000000000600052603160045260246000fdfea264697066735822122084b44526065c5d91768de42cea7ea99bd2377da68edd87e99f926ac5f71dc72c64736f6c63430008110033",
    "linkReferences": {},
    "deployedLinkReferences": {}
}